:020000040000FA
:100000000C9462000C948A000C948A000C948A0070
:100010000C948A000C948A000C948A000C948A0038
:100020000C948A000C948A000C948A000C94C302ED
:100030000C948A000C948A000C948A000C948A0018
:100040000C9479020C948A000C9447020C942102BF
:100050000C948A000C948A000C948A000C948A00F8
:100060000C948A000C948A000000000023002600F3
:10007000290000000000240027002A0000000000E2
:10008000250028002B0004040404040404040202D4
:100090000202020203030303030301020408102007
:1000A0004080010204081020010204081020000012
:1000B0000008000201000003040700000000000027
:1000C0000000630511241FBECFEFD8E0DEBFCDBF17
:1000D00011E0A0E0B1E0E6E8FBE002C005900D927F
:1000E000AC33B107D9F722E0ACE3B1E001C01D9217
:1000F000A734B207E1F710E0C2E6D0E004C02197D0
:10010000FE010E94B205C136D107C9F70E94FF0364
:100110000C94C1050C940000AF92BF92CF92DF9275
:10012000EF92FF920F931F93CF93DF936C017B01AC
:100130008B01040F151FEB015E01AE18BF08C0173D
:10014000D10759F06991D601ED91FC910190F081B0
:10015000E02DC6010995892B79F7C501DF91CF9173
:100160001F910F91FF90EF90DF90CF90BF90AF90D5
:100170000895FC01538D448D252F30E0842F90E0AD
:10018000821B930B541710F0CF9608950197089592
:10019000FC01918D828D981761F0A28DAE0FBF2F5B
:1001A000B11D5D968C91928D9F5F9F73928F90E0B1
:1001B00008958FEF9FEF0895FC01918D828D981720
:1001C00031F0828DE80FF11D858D90E008958FEF5D
:1001D0009FEF0895FC01918D228D892F90E0805C26
:1001E0009F4F821B91098F73992708958AEA91E0A6
:1001F0000E94EA0021E0892B09F420E0822F089573
:1002000080E090E0892B29F00E94F60081110C9487
:1002100000000895FC01A48DA80FB92FB11DA35AA9
:10022000BF4F2C91848D90E001968F739927848F16
:10023000A689B7892C93A089B1898C918370806439
:100240008C93938D848D981306C00288F389E02DDA
:1002500080818F7D80830895EF92FF920F931F938B
:10026000CF93DF93EC0181E0888F9B8D8C8D981369
:100270001AC0E889F989808185FF15C09FB7F89475
:10028000EE89FF896083E889F989808183708064C1
:1002900080839FBF81E090E0DF91CF911F910F910C
:1002A000FF90EF900895F62E0B8D10E00F5F1F4F1B
:1002B0000F731127E02E8C8D8E110CC00FB607FC2A
:1002C000FACFE889F989808185FFF5CFCE010E94B8
:1002D0000A01F1CFEB8DEC0FFD2FF11DE35AFF4F1B
:1002E000F0829FB7F8940B8FEA89FB898081806246
:1002F000CFCFCF93DF93EC01888D8823B9F0AA8903
:10030000BB89E889F9898C9185FD03C0808186FDD0
:100310000DC00FB607FCF7CF8C9185FFF2CF80811F
:1003200085FFEDCFCE010E940A01E9CFDF91CF9189
:100330000895833081F028F4813099F08230A9F05B
:1003400008958730A9F08830C9F08430B1F48091E5
:1003500080008F7D03C0809180008F778093800024
:10036000089584B58F7784BD089584B58F7DFBCFC4
:100370008091B0008F778093B00008958091B00095
:100380008F7DF9CF1F93CF93DF93282F30E0F901B2
:10039000E255FF4F8491F901E656FF4FD491F901E0
:1003A000EA57FF4FC491CC23A9F0162F81110E9468
:1003B0009901EC2FF0E0EE0FFF1FE458FF4FA591DD
:1003C000B4918FB7F894EC91111108C0D095DE2349
:1003D000DC938FBFDF91CF911F910895DE2BF8CF73
:1003E000CF93DF9390E0FC01E656FF4F24918A57AC
:1003F0009F4FFC0184918823D1F090E0880F991FD2
:10040000FC01EE58FF4FA591B491FC01E458FF4F59
:10041000C591D49161110EC09FB7F8948C91E22FD1
:10042000E0958E238C932881E223E8839FBFDF91A0
:10043000CF9108958FB7F894EC91E22BEC938FBF96
:10044000F6CF1F920F920FB60F9211242F933F9366
:100450004F935F936F937F938F939F93AF93BF93CC
:10046000EF93FF938AEA91E00E940A01FF91EF91D6
:10047000BF91AF919F918F917F916F915F914F91BC
:100480003F912F910F900FBE0F901F9018951F92C4
:100490000F920FB60F9211242F938F939F93EF9388
:1004A000FF93E091BA01F091BB018081E091C0011E
:1004B000F091C10182FD1BC090818091C3018F5FCB
:1004C0008F732091C401821741F0E091C301F0E0E5
:1004D000E655FE4F958F8093C301FF91EF919F9159
:1004E0008F912F910F900FBE0F901F9018958081C4
:1004F000F4CF1F920F920FB60F9211242F933F93B8
:100500008F939F93AF93BF9380914F019091500130
:10051000A0915101B091520130914E0123E0230F7F
:100520002D3758F50196A11DB11D20934E018093E2
:100530004F0190935001A0935101B09352018091CB
:100540004A0190914B01A0914C01B0914D0101964F
:10055000A11DB11D80934A0190934B01A0934C01C2
:10056000B0934D01BF91AF919F918F913F912F918A
:100570000F900FBE0F901F90189526E8230F02963C
:10058000A11DB11DD2CF1F920F920FB60F92112451
:100590001F932F933F934F935F936F937F938F930B
:1005A0009F93AF93BF93CF93DF93EF93FF931091FC
:1005B0005501112339F180914901811123C0209106
:1005C000000130E0F901E255FF4F8491F901E65650
:1005D000FF4FD491F901EA57FF4FC491CC2379F032
:1005E00081110E949901EC2FF0E0EE0FFF1FE859F6
:1005F000FF4FA591B491EC91DE2381E009F480E0F6
:1006000080934801809149018823E1F0809147015E
:1006100091E0980F90934701811114C060915301AC
:100620008AE00E94C20160E08CE00E94C201109248
:1006300049018091450190914601019690934601B0
:100640008093450180914701883010F01092470156
:10065000112309F492C08091490181118EC09091BB
:100660004801992329F0809144018F5F80934401D0
:100670008091420120914301921709F44AC02BE076
:10068000803508F02DE1820F809342019093430161
:1006900020914201203A08F470C08091400190916D
:1006A0004101969587959093410180934001309147
:1006B0004401353028F098609093410180934001C7
:1006C000205A2093420110924401809154018823C2
:1006D00009F484C080913F018F5F80933F018C308B
:1006E00008F44BC08091400190914101382F3F7335
:1006F000232F26952695287048E0420F421769F06F
:10070000E22FF0E0E15FFE4F5081351739F02F5FA7
:10071000F5CF8C5E80934201BBCF20E040E1249F67
:100720009001112436E0969587953A95E1F7482F88
:100730009595879595958795887098E0980F981767
:1007400049F0E82FF0E0E15FFE4F5081451719F0C6
:100750008F5FF5CF80E0822B9091A601911121C08F
:1007600080933E019CEF980F9D34D8F01092540175
:1007700080913D018F5F80933D01FF91EF91DF916B
:10078000CF91BF91AF919F918F917F916F915F9129
:100790004F913F912F911F910F900FBE0F901F907F
:1007A0001895E091A60191E09E0F9093A601F0E0CC
:1007B000EA5AFE4F80839091A60180913E019817DE
:1007C00050F01092540180913C018F5F80933C0166
:1007D00081E08093A70110923F01CFCF809140012B
:1007E0009091410188339B4041F681E08093540110
:1007F00010923F011092A6011092A701BECFCF9395
:10080000DF93CDB7DEB7C055D1090FB6F894DEBF80
:100810000FBECDBF789484B5826084BD84B58160FD
:1008200084BD85B5826085BD85B5816085BD8091BB
:100830006E00816080936E00109281008091810033
:10084000826080938100809181008160809381002B
:10085000809180008160809380008091B1008460ED
:100860008093B1008091B00081608093B00080914E
:100870007A00846080937A0080917A00826080930D
:100880007A0080917A00816080937A0080917A006A
:10089000806880937A001092C100E091BA01F091D3
:1008A000BB0182E08083E091B601F091B701108234
:1008B000E091B801F091B9018FEC80831092C201F0
:1008C000E091BE01F091BF0186E08083E091BC0120
:1008D000F091BD01808180618083E091BC01F09145
:1008E000BD01808188608083E091BC01F091BD01F1
:1008F000808180688083E091BC01F091BD0180819E
:100900008F7D808381E0809353018EE0E1E0F1E010
:10091000DE01119601900D928A95E1F77E0123E0A8
:10092000E20EF11C11E0812C94E2992E94EFA92E95
:10093000B12C20E8422E2EE3522E612C712CF701AF
:10094000219131917F0150E040E0C501B4010E9446
:100950009005CA01B901A30192010E9490052230BD
:1009600031054105510508F085C01F5F173039F783
:100970008BE08093000180915501811105C081E0D9
:10098000809355011092540180E0C82E80E0D82E4B
:100990008091A701882309F461C00091A60103504A
:1009A000003508F000E510E0A80167E571E0CE0130
:1009B00001960E94B8051092A7012091A601E6E5D4
:1009C000F1E08FEF9FEF215098F031918327082EAF
:1009D0008295807F8025092E982F82958F7008261A
:1009E000869598278927880F880F880F8025EBCF59
:1009F000883B904F99F545E050E061E371E08AEA69
:100A000091E00E948C008A8190E087539140F1F43C
:100A10001092A9011092A801E090A801F090A901FC
:100A2000E016F1069CF4E1E0F0E0EC0FFD1FEE0DA6
:100A3000FF1D60818AEA91E00E942C018FEFE81A85
:100A4000F80AF092A901E092A801E6CF42E050E056
:100A500069E371E08AEA91E00E948C00C114D1043C
:100A600009F496CF0E94F600882309F491CF0E94E2
:100A700000008ECF163009F47BCF1092800088E002
:100A80008093810080918100182B10938100309316
:100A900089002093880080916F00826080936F00AE
:100AA00061E08CE00E94F00160E0809100010E9412
:100AB000F00161E08AE00E94F001609153018AE058
:100AC0000E94C20155CFEAEAF1E01382128288EE59
:100AD00093E0A0E0B0E084839583A683B78383E2AC
:100AE00091E09183808385EC90E09587848784EC06
:100AF00090E09787868780EC90E0918B808B81ECEB
:100B000090E0938B828B82EC90E0958B848B86ECCB
:100B100090E0978B868B118E128E138E148E089513
:100B2000A1E21A2EAA1BBB1BFD010DC0AA1FBB1FF1
:100B3000EE1FFF1FA217B307E407F50720F0A21B63
:100B4000B30BE40BF50B661F771F881F991F1A94D0
:100B500069F760957095809590959B01AC01BD01FA
:100B6000CF010895EE0FFF1F0590F491E02D099439
:100B7000FB01DC0102C001900D9241505040D8F7BA
:100B80000895F894FFCF0B0000010008004000001A
:100B9000010004050D0D0E131516191A1C23252628
:100BA000292A2C3234000000002C018C00B9007975
:100BB00001EA00C800DC00476F743A200031000DE4
:020BC0000A0029
:107E0000112484B714BE81FFF0D085E080938100F7
:107E100082E08093C00088E18093C10086E0809377
:107E2000C20080E18093C4008EE0C9D0259A86E02C
:107E300020E33CEF91E0309385002093840096BBD3
:107E4000B09BFECF1D9AA8958150A9F7CC24DD24C4
:107E500088248394B5E0AB2EA1E19A2EF3E0BF2EE7
:107E6000A2D0813461F49FD0082FAFD0023811F036
:107E7000013811F484E001C083E08DD089C08234E0
:107E800011F484E103C0853419F485E0A6D080C0E4
:107E9000853579F488D0E82EFF2485D0082F10E0AE
:107EA000102F00270E291F29000F111F8ED06801E7
:107EB0006FC0863521F484E090D080E0DECF843638
:107EC00009F040C070D06FD0082F6DD080E0C81688
:107ED00080E7D80618F4F601B7BEE895C0E0D1E017
:107EE00062D089930C17E1F7F0E0CF16F0E7DF06D8
:107EF00018F0F601B7BEE89568D007B600FCFDCFD4
:107F0000A601A0E0B1E02C9130E011968C91119780
:107F100090E0982F8827822B932B1296FA010C0160
:107F200087BEE89511244E5F5F4FF1E0A038BF0790
:107F300051F7F601A7BEE89507B600FCFDCF97BE46
:107F4000E89526C08437B1F42ED02DD0F82E2BD052
:107F50003CD0F601EF2C8F010F5F1F4F84911BD097
:107F6000EA94F801C1F70894C11CD11CFA94CF0C13
:107F7000D11C0EC0853739F428D08EE10CD085E9AC
:107F80000AD08FE07ACF813511F488E018D01DD067
:107F900080E101D065CF982F8091C00085FFFCCF94
:107FA0009093C60008958091C00087FFFCCF809118
:107FB000C00084FD01C0A8958091C6000895E0E648
:107FC000F0E098E1908380830895EDDF803219F02E
:107FD00088E0F5DFFFCF84E1DECF1F93182FE3DFCA
:107FE0001150E9F7F2DF1F91089580E0E8DFEE27F6
:047FF000FF270994CA
:027FFE00040479
:00000001FF
