:100000000C9463000C948B000C948B000C948B006C
:100010000C948B000C948B000C948B000C948B0034
:100020000C948B000C948B000C948B000C94160693
:100030000C948B000C948B000C948B000C948B0014
:100040000C94CC050C948B000C949A050C947405BC
:100050000C948B000C948B000C948B000C948B00F4
:100060000C9489060C948B000000000024002700EB
:100070002A0000000000250028002B0000000000DE
:1000800023002600290004040404040404040202DA
:100090000202020203030303030301020408102007
:1000A0004080010204081020010204081020000012
:1000B0000008000201000003040700000000000027
:1000C0000000A8075F0911241FBECFEFD8E0DEBFF4
:1000D000CDBF23E0AAE2B2E001C01D92A439B2076D
:1000E000E1F712E0A0E0B1E0EAE8F7E102C0059034
:1000F0000D92AA32B107D9F710E0C2E6D0E004C0F1
:100100002197FE010E94C009C136D107C9F70E949C
:10011000EC070C94B80B0C9400000895CF93DF9378
:10012000AC01E091D402F091D5023097F1F09091BA
:10013000D3028091D2029817C0F090E0292F30E0CE
:100140002617370754F4D901A65DBD4F240F351F7C
:10015000E90128812C939F5FF1CF1092D302609325
:10016000D202CB01DF91CF910994DF91CF91089515
:10017000AF92BF92CF92DF92EF92FF920F931F93B5
:10018000CF93DF936C017B018B01040F151FEB01F3
:100190005E01AE18BF08C017D10759F06991D601AA
:1001A000ED91FC910190F081E02DC6010995892B1C
:1001B00079F7C501DF91CF911F910F91FF90EF90DB
:1001C000DF90CF90BF90AF900895FC01538D448D88
:1001D000252F30E0842F90E0821B930B541710F0F2
:1001E000CF96089501970895FC01918D828D9817FF
:1001F00061F0A28DAE0FBF2FB11D5D968C91928DD7
:100200009F5F9F73928F90E008958FEF9FEF089507
:10021000FC01918D828D981731F0828DE80FF11DD0
:10022000858D90E008958FEF9FEF0895FC01918DEB
:10023000228D892F90E0805C9F4F821B91098F73E4
:10024000992708958BED92E00E94160121E0892BF9
:1002500009F420E0822F089580E090E0892B29F0B6
:100260000E94220181110C9400000895FC01A48DCC
:10027000A80FB92FB11DA35ABF4F2C91848D90E0C8
:1002800001968F739927848FA689B7892C93A089AB
:10029000B1898C91837080648C93938D848D981335
:1002A00006C00288F389E02D80818F7D80830895C8
:1002B000EF92FF920F931F93CF93DF93EC0181E0B6
:1002C000888F9B8D8C8D98131AC0E889F98980815D
:1002D00085FF15C09FB7F894EE89FF896083E88990
:1002E000F98980818370806480839FBF81E090E082
:1002F000DF91CF911F910F91FF90EF900895F62E0F
:100300000B8D10E00F5F1F4F0F731127E02E8C8DA8
:100310008E110CC00FB607FCFACFE889F9898081ED
:1003200085FFF5CFCE010E943601F1CFEB8DEC0FAA
:10033000FD2FF11DE35AFF4FF0829FB7F8940B8F0A
:10034000EA89FB8980818062CFCFCF93DF93EC0174
:10035000888D8823B9F0AA89BB89E889F9898C91AD
:1003600085FD03C0808186FD0DC00FB607FCF7CF69
:100370008C9185FFF2CF808185FFEDCFCE010E9469
:100380003601E9CFDF91CF910895833081F028F4D1
:10039000813099F08230A9F008958730A9F0883033
:1003A000C9F08430B1F4809180008F7D03C08091CA
:1003B00080008F7780938000089584B58F7784BD07
:1003C000089584B58F7DFBCF8091B0008F778093A7
:1003D000B00008958091B0008F7DF9CFCF93DF9367
:1003E000282F30E0F901E255FF4F8491F901E656DC
:1003F000FF4FD491F901EA57FF4FC491CC23A1F0EC
:1004000081110E94C501EC2FF0E0EE0FFF1FE458B0
:10041000FF4FA591B491EC91ED2381E090E009F4B8
:1004200080E0DF91CF91089580E090E0FACF1F93B4
:10043000CF93DF93282F30E0F901E255FF4F8491ED
:10044000F901E656FF4FD491F901EA57FF4FC491E5
:10045000CC23A9F0162F81110E94C501EC2FF0E0EA
:10046000EE0FFF1FEE58FF4FA591B4918FB7F89490
:10047000EC91111108C0D095DE23DC938FBFDF9182
:10048000CF911F910895DE2BF8CFCF93DF9390E0AB
:10049000FC01E656FF4F24918A579F4FFC0184913F
:1004A0008823D1F090E0880F991FFC01E859FF4F95
:1004B000A591B491FC01EE58FF4FC591D491611103
:1004C0000EC09FB7F8948C91E22FE0958E238C9309
:1004D0002881E223E8839FBFDF91CF9108958FB7F2
:1004E000F894EC91E22BEC938FBFF6CF3FB7F894E2
:1004F0008091C8029091C902A091CA02B091CB022A
:1005000026B5A89B05C02F3F19F00196A11DB11D6E
:100510003FBFBA2FA92F982F8827BC01CD01620FAA
:10052000711D811D911D42E0660F771F881F991F65
:100530004A95D1F708958F929F92AF92BF92CF9232
:10054000DF92EF92FF924B015C010E9476026B01F9
:100550007C010E9476026C197D098E099F09683E14
:10056000734081059105A8F321E0821A9108A10842
:10057000B10888EEC80E83E0D81EE11CF11C81147E
:100580009104A104B10429F7FF90EF90DF90CF9080
:10059000BF90AF909F908F9008958627082E8295E8
:1005A000807F8025092E982F82958F70082686954A
:1005B00098278927880F880F880F802508958F92A4
:1005C0009F92AF92BF92CF92DF92EF92FF920F93E2
:1005D0001F93CF936E3408F0B3C02091C202211153
:1005E000FCCFC62F7C0113E0160F612F8FEF9FEF1A
:1005F0000E94CD02E12FF0E0A4E0F595E795AA95E1
:10060000E1F7E354FE4F2081209308011F70E12F92
:10061000F0E0E354FE4F2081209309018701B0E010
:10062000CB2EB1E0DB2EEC2EF12C48018E0C9F1C62
:1006300022E0C20ED11C80169106F9F05801D801B3
:100640006D918D010E94CD02D501EC91F0E074E036
:10065000F595E7957A95E1F7E354FE4F2081F60191
:100660002087F8013197E081EF70F0E0E354FE4F0E
:100670002081D60119962C93DBCFCF5FCC0FFC01E4
:10068000E095F095C701880F991F865F9E4FDF01A7
:1006900034E0B695A7953A95E1F7AF70BB27A35420
:1006A000BE4F2C91DC012C93D701AA0FBB1F9D01DB
:1006B000255F3E4FCF018F70992783549E4FDC01F9
:1006C0008C91D9018C93A2E0AC0FB0E09D01285F22
:1006D0003E4FCF01892F992782958F7083549E4F6B
:1006E000DC018C91D9018C93A3E0AC0FB0E0A85F42
:1006F000BE4FEF2FFF27EF70FF27E354FE4F80819F
:100700008C93C45FC093BF021092C0021092BC02CF
:100710001092C1026091D602C1E06C278AE00E946B
:100720001702C093C20281E0CF911F910F91FF90F9
:10073000EF90DF90CF90BF90AF909F908F900895F3
:1007400080E0F2CF20917002260F3327331F213231
:100750003105ECF420919402FC0190E080E024301B
:1007600069F082E00895A09170022191AC01405B94
:100770005D4FA40FB52FB11D2C930196861798F3EA
:1007800080917002680F6093700280E0089581E0AC
:1007900008951092940281E080939602109295023F
:1007A00061E082E10E94170261E083E10E9417028A
:1007B000E9EBF0E080818E7F808380818D7F808374
:1007C00088E48093B80085E48093BC000895089580
:1007D000E091D3028091D202E81730F4F0E0E65DB8
:1007E000FD4F808190E008958FEF9FEF08959091E5
:1007F000D3028091D2022FEF3FEF981748F4E92FF0
:10080000F0E0E65DFD4F208130E09F5F9093D302E2
:10081000C90108958091D2029091D302891B990B4E
:100820000895CF93DF93CB01EA01642F0E94A203C6
:10083000CE01DF91CF910895CF93DF931F92CDB773
:10084000DEB7698361E0CE0101960E94A20381E0D8
:1008500090E00F90DF91CF91089590E080E00895AF
:100860000F931F93CF93DF93EC01888199810097B9
:1008700059F02A813B812617370730F081E0DF915C
:10088000CF911F910F9108958B016F5F7F4F0E9451
:10089000EB0A009759F0998388831B830A832C8184
:1008A0003D81232B59F7FC011082E8CF80E0E7CF90
:1008B000CF93DF93EC0188819981009711F00E941A
:1008C000620A198218821D821C821B821A82DF91A1
:1008D000CF910895EF92FF920F931F93CF93DF93E1
:1008E000EC017B018A01BA010E94300481110BC026
:1008F000CE010E945804CE01DF91CF911F910F913C
:10090000FF90EF9008951D830C83B7018881998132
:100910000E94B10BF0CFCF93DF93EC01FB01861760
:10092000970749F0608171816115710541F044813B
:1009300055810E946A04CE01DF91CF9108950E94F3
:100940005804F9CFFC0111821082138212821582A1
:100950001482FB0101900020E9F73197AF01461B9B
:10096000570B0C946A04FC0180819181009711F06F
:100970000C94620A08950F931F93CF93DF93CDB722
:10098000DEB728970FB6F894DEBF0FBECDBF8091BB
:10099000D2029091D302891B990B18161906E4F51F
:1009A00088E793E00E94F703182F1A8219821C82AD
:1009B0001B821E821D8264E873E0CE0101960E94B4
:1009C0008B041F8318860D811E810F5F1F4FB80196
:1009D000CE0101960E9430048823C9F029813A8112
:1009E0008D819E81BE01695F7F4F820F931F0E94A0
:1009F000B10B1E830D83BE016F5F7F4F84E893E0D0
:100A00000E948B04CE0101960E94B304C0CFCE0198
:100A100001960E945804EFCF64E873E08AE893E0FF
:100A20000E948B0428960FB6F894DEBF0FBECDBF90
:100A3000DF91CF911F910F910895CF93DF9385EDB3
:100A40008093BC0080914C0290914D02A0914E0287
:100A5000B0914F020796A11DB11D23E0B695A79551
:100A6000979587952A95D1F72091BC0024FD03C066
:100A70001092940236C040914C0250914D02609108
:100A80004E0270914F02452B462B472B69F300977E
:100A9000A105B10541F025E32A95F1F70000019782
:100AA000A109B109E1CF80914B0291E090934A02F4
:100AB0008823B9F0C091B800D091BA008091BC00F1
:100AC0008A7B8093BC0060E082E10E94170260E0B4
:100AD00083E10E9417020E94C903D093BA00C09319
:100AE000B800DF91CF9108951F920F920FB60F9229
:100AF00011242F933F934F935F936F937F938F9323
:100B00009F93AF93BF93EF93FF938BED92E00E947F
:100B10003601FF91EF91BF91AF919F918F917F919E
:100B20006F915F914F913F912F910F900FBE0F905A
:100B30001F9018951F920F920FB60F9211242F93AA
:100B40008F939F93EF93FF93E091EB02F091EC0270
:100B50008081E091F102F091F20282FD1BC0908150
:100B60008091F4028F5F8F732091F502821741F01C
:100B7000E091F402F0E0E552FD4F958F8093F4028E
:100B8000FF91EF919F918F912F910F900FBE0F903A
:100B90001F9018958081F4CF1F920F920FB60F927D
:100BA00011242F933F938F939F93AF93BF93809183
:100BB000C4029091C502A091C602B091C7023091C3
:100BC000C30223E0230F2D3758F50196A11DB11D57
:100BD0002093C3028093C4029093C502A093C602DF
:100BE000B093C7028091C8029091C902A091CA0235
:100BF000B091CB020196A11DB11D8093C8029093C4
:100C0000C902A093CA02B093CB02BF91AF919F914A
:100C10008F913F912F910F900FBE0F901F901895BD
:100C200026E8230F0296A11DB11DD2CF1F920F926D
:100C30000FB60F9211241F932F933F934F935F93FF
:100C40006F937F938F939F93AF93BF93CF93DF93D4
:100C5000EF93FF938091C202882321F18091C1021A
:100C600091E0980F9093C10281111CC0C091C00205
:100C70001091A8018091BF02C81770F16091D6024F
:100C80008AE00E94170260E0812F0E9417021092F2
:100C9000C2028091BD029091BE0201969093BE0265
:100CA0008093BD028091C102883010F01092C10281
:100CB000FF91EF91DF91CF91BF91AF919F918F9174
:100CC0007F916F915F914F913F912F911F910F9065
:100CD0000FBE0F901F901895EC2FF0E0E050FF4FE3
:100CE00060812091BC02D1E0D20FD093BC0281E0A0
:100CF00090E001C0880F2A95EAF76823812F0E94AF
:100D00001702D630A8F21092BC02CF5FC093C00287
:100D1000C9CF1F920F920FB60F9211242F933F93BA
:100D20004F935F936F937F938F939F93AF93BF93F3
:100D3000EF93FF938091B900887F803609F44AC011
:100D4000F0F5883209F4A7C018F5803109F49BC08A
:100D5000B8F4882309F4F9C0883009F494C0FF91ED
:100D6000EF91BF91AF919F918F917F916F915F9123
:100D70004F913F912F910F900FBE0F901F9018959C
:100D8000883109F488C0803251F78093930214C0EF
:100D9000803409F49DC040F48033B9F38833F9F608
:100DA0008093930285ECB0C0803509F485C0883506
:100DB00009F496C0883499F60E941D05D0CF883971
:100DC00009F48CC038F5883729F050F4883611F0D2
:100DD000803729F683E0809394021092920257C0E4
:100DE000883809F47BC0803919F0803809F0B7CF12
:100DF00080919202803208F071C0E091920281E00D
:100E00008E0F809392028091BB00F0E0EE58FD4F70
:100E100080833DC0803B39F0E0F4803A09F479C02A
:100E2000883A09F09CCF84E080939402109271027A
:100E300010927002E091CE02F091CF02099580915C
:100E4000700281110FC081E08093700210925002F5
:100E500009C0803C09F4A6CF883C09F4A3CF883BA5
:100E600009F07DCFE091710281E08E0F80937102D5
:100E7000F0E0E05BFD4F80818093BB0090917102B8
:100E80008091700229C08091B9028093BB0085ECEB
:100E90008093BC0064CF9091B8028091B7029817FC
:100EA00058F5E091B80281E08E0F8093B802F0E02F
:100EB000E956FD4F8081E9CFE091B80281E08E0FC5
:100EC0008093B8028091BB00F0E0E956FD4F80832B
:100ED0009091B8028091B7029817C8F285E8D8CFF0
:100EE000E091B80281E08E0F8093B8028091BB0040
:100EF000F0E0E956FD4F80838091960281115CCF2E
:100F000081E08093950284EA8093BC001092940261
:100F100026CF85EC8093BC001092940280919202BF
:100F2000803230F4E0919202F0E0EE58FD4F1082F2
:100F30006091920270E0E091CC02F091CD0282E7E4
:100F400092E00995109292020ACF1092930234CF48
:100F5000EBEDF2E01382128288EE93E0A0E0B0E0C5
:100F600084839583A683B78321ED31E03183208389
:100F700025EC30E03587248724EC30E0378726875E
:100F800020EC30E0318B208B21EC30E0338B228B56
:100F900022EC30E0358B248B26EC30E0378B268B2F
:100FA000118E128E138E148EE8E7F3E013821282F4
:100FB00084839583A683B78383EE91E091838083B6
:100FC00063EF71E08AE893E00E94A20463EF71E0AE
:100FD00084E893E00C94A204CF93DF93CDB7DEB7FF
:100FE0002E970FB6F894DEBF0FBECDBF789484B5B0
:100FF000826084BD84B5816084BD85B5826085BD15
:1010000085B5816085BD80916E00816080936E00A2
:101010001092810080918100826080938100809194
:101020008100816080938100809180008160809345
:1010300080008091B10084608093B1008091B00005
:1010400081608093B00080917A00846080937A0000
:1010500080917A00826080937A0080917A0081602A
:1010600080937A0080917A00806880937A00109251
:10107000C1001092D3021092D2021092D1021092AB
:10108000D0020E94C9038DE890E09093CF02809334
:10109000CE028EE890E09093CD028093CC0282E164
:1010A0008093BA008BEB94E09093D5028093D402A6
:1010B000E091EB02F091EC0282E08083E091E702A4
:1010C000F091E8021082E091E902F091EA028FECDF
:1010D00080831092F302E091EF02F091F00286E03B
:1010E0008083E091ED02F091EE0280818061808347
:1010F000E091ED02F091EE02808188608083E091C2
:10110000ED02F091EE02808180688083E091ED0233
:10111000F091EE0280818F7D808360E082E00E940A
:10112000450260E084E00E94450260E088E00E94A1
:10113000450281E08093D6028EE0EFEAF1E0DE0125
:10114000119601900D928A95E1F77E0123E0E20E5F
:10115000F11C11E0812C84E2982E84EFA82EB12C92
:1011600090E8492E9EE3592E612C712CF7012191B4
:1011700031917F0150E040E0C501B4010E949E0919
:10118000CA01B901A30192010E949E0922303105D2
:101190004105510508F06AC01F5F173039F78CE030
:1011A0008093A80100E010E040918E0350918F03DE
:1011B00060918A0370918B038BED92E00E94B800DE
:1011C00042E050E061EF71E08BED92E00E94B800E8
:1011D00068EE73E080E090E00E949B0250E040E007
:1011E00063EF71E084E893E00E946A0482E00E9469
:1011F000EE015C019093DA028093D90284E00E94B0
:10120000EE017C019093D8028093D70288E00E947F
:10121000EE0164EF71E0AA94AB2849F06EE072E051
:10122000EA94EF2821F00197A9F46CE172E0CE0175
:1012300001960E94A2046D8189819A810E94DF0239
:1012400064EF71E080E090E00E949B02CE01019685
:101250000E94B3040115110509F4A6CF0E942201D2
:10126000882309F4A1CF0E9400009ECF163009F414
:1012700096CF1092800088E0809381008091810059
:10128000182B10938100309389002093880080915F
:101290006F00826080936F0061E08091A8010E94DE
:1012A000450260E08BE00E94450261E08AE00E9416
:1012B00045026091D6028AE00E94170270CF84E84E
:1012C00093E00E94B3048AE893E00C94B3042F9255
:1012D0003F924F925F926F927F928F929F92AF92C6
:1012E000BF92CF92DF92EF92FF920F931F93CF9313
:1012F000DF93CDB7DEB7CA1BDB0B0FB6F894DEBFAA
:101300000FBECDBF09942A88398848885F846E84CF
:101310007D848C849B84AA84B984C884DF80EE8019
:10132000FD800C811B81AA81B981CE0FD11D0FB622
:10133000F894DEBF0FBECDBFED010895A1E21A2ED5
:10134000AA1BBB1BFD010DC0AA1FBB1FEE1FFF1F69
:10135000A217B307E407F50720F0A21BB30BE40BB9
:10136000F50B661F771F881F991F1A9469F7609500
:101370007095809590959B01AC01BD01CF010895BA
:10138000EE0FFF1F0590F491E02D09940F931F932A
:10139000CF93DF938230910510F482E090E0E091EA
:1013A0009203F091930330E020E0B0E0A0E03097AA
:1013B00099F42115310509F44AC0281B390B243052
:1013C0003105D8F58A819B816115710589F1FB0191
:1013D00093838283FE0111C0408151810281138178
:1013E00048175907E0F04817590799F4109761F02A
:1013F00012960C93129713961C933296CF01DF919D
:10140000CF911F910F91089500939203109393032E
:10141000F4CF2115310551F04217530738F0A901D7
:10142000DB019A01BD01DF01F801C1CFEF01F9CF66
:101430009093930380939203CDCFFE01E20FF31FAD
:10144000819391932250310939832883D7CF2091FA
:10145000900330919103232B41F42091AB01309103
:10146000AC0130939103209390032091A901309116
:10147000AA012115310541F42DB73EB74091AD01C8
:101480005091AE01241B350BE0919003F091910334
:10149000E217F307A0F42E1B3F0B2817390778F04B
:1014A000AC014E5F5F4F2417350748F04E0F5F1FAA
:1014B0005093910340939003819391939FCFF0E0D9
:1014C000E0E09CCFCF93DF930097E9F0FC013297E7
:1014D00013821282A0919203B0919303ED0130E048
:1014E00020E01097A1F420813181820F931F209179
:1014F0009003309191032817390709F061C0F093E8
:101500009103E0939003DF91CF910895EA01CE1704
:10151000DF07E8F54A815B819E0141155105B1F76E
:10152000E901FB83EA8349915991C40FD51FEC1758
:10153000FD0761F4808191810296840F951FE90176
:1015400099838883828193819B838A83F0E0E0E0A2
:1015500012968D919C9113970097B9F52D913C911E
:101560001197CD010296820F931F20919003309125
:1015700091032817390739F6309751F510929303E4
:1015800010929203B0939103A0939003BCCFD383A6
:10159000C28340815181840F951FC817D90761F418
:1015A0004E5F5F4F88819981480F591F5183408357
:1015B0008A819B81938382832115310509F0B0CF05
:1015C000F0939303E09392039ECFFD01DC01C0CF23
:1015D00013821282D7CFB0E0A0E0E1EFFAE00C94E2
:1015E00069098C01009751F4CB010E94C6098C0156
:1015F000C801CDB7DEB7E0E10C948509FC01E60F28
:10160000F71F9C0122503109E217F30708F49DC02F
:10161000D901CD91DC911197C617D70798F0C53045
:10162000D10530F3CE0104978617970708F3C61B40
:10163000D70B2297C193D1936D937C93CF010E94D6
:10164000620AD6CF5B01AC1ABD0A4C018C0E9D1EFE
:10165000A0919203B0919303512C412CF12CE12CD9
:10166000109731F580919003909191038815990519
:1016700009F05CC04616570608F058C08091A901D1
:101680009091AA01009741F48DB79EB74091AD01AA
:101690005091AE01841B950BE817F90708F055C06F
:1016A000F0939103E0939003F90171836083A0CFDD
:1016B0008D919C91119712966C90129713967C9035
:1016C0001397A815B90559F56C0142E0C40ED11C59
:1016D000CA14DB0420F1AC014A195B09DA01129645
:1016E000159780F06282738251834083D9016D9394
:1016F0007C93E114F10471F0D7011396FC93EE93FF
:10170000129776CF22968C0F9D1FF90191838083CB
:10171000F301EFCFF0939303E093920369CF481660
:10172000590608F42C017D01D3019ACFCB010E9408
:10173000C6097C01009749F0AE01B8010E94A80BD0
:10174000C8010E94620A870153CF10E000E050CF29
:10175000FB01DC0102C001900D9241505040D8F7CE
:101760000895FB01DC0101900D920020E1F708953E
:1017700010E0C2E6D0E004C0FE010E94C00921963C
:0A178000C336D107C9F7F894FFCF74
:10178A002A2A2A2A2A2A382C0000000000000000EF
:10179A00000000000000000000000000000000003F
:1017AA00000000000000000000000000000000002F
:1017BA00000000000000000000000000000000001F
:1017CA00000000000000000000000000000000000F
:1017DA0000000000000000000000000000000000FF
:1017EA0000000000000000000000000000000000EF
:1017FA0000000000000000000000000000000000DF
:10180A0000000000000000000000000000000000CE
:10181A0000000000000000000000000000000000BE
:10182A0000000000000000000C000094038000008B
:10183A000001000800400000010004050D0D0E1310
:10184A001516191A1C232526292A2C3234000000C1
:10185A00005801B800E500A5011601F400080100CE
:10186A000000001C0411042D04E7030A04F703E82E
:10187A00030D0A0050312070757368206275747404
:10188A006F6E206973207072657373656400686592
:10189A006C6C6F20776F726C6420320068656C6CB8
:0A18AA006F20776F726C642033002A
:00000001FF
