:100000000C94FF000C9427010C9427010C942701F9
:100010000C9427010C9427010C9427010C942701C0
:100020000C9427010C9427010C9427010C942701B0
:100030000C9427010C9427010C9427010C942701A0
:100040000C9426080C9427010C94F4070C94CE070A
:100050000C9427010C9427010C9427010C94270180
:100060000C9470080C94270100407A10F35A00A0F9
:10007000724E18090010A5D4E80000E87648170071
:1000800000E40B54020000CA9A3B000000E1F505B1
:10009000000080969800000040420F000000A086FB
:1000A00001000000102700000000E803000000002D
:1000B0006400000000000A000000000001000000D1
:1000C00000002C76D888DC674F0823DFC1DFAE59EB
:1000D000E1B1B796E5E3E453C63AE651997696E87E
:1000E000E6C28426EB898C9B62ED407C6FFCEFBC02
:1000F0009C9F40F2BAA56FA5F490055A2AF75C932D
:100100006B6CF9676DC11BFCE0E40D47FEF520E662
:10011000B500D0ED902E0300943577050080841E45
:10012000080000204E0A000000C80C333333330FA0
:10013000986E12831141EF8D2114893BE65516CF3D
:10014000FEE6DB18D1844B381BF77C1D901DA4BB49
:10015000E424203284725E228100C9F124ECA1E5FE
:100160003D2700000000240027002A0000000000B6
:10017000250028002B0000000008000201000003F9
:100180000407000000000000000000000000230041
:1001900026002900040404040404040402020202E8
:1001A000020203030303030301020408102040803A
:1001B0000102040810200102040810204320002539
:1001C000202054656D70657261747572653A200007
:1001D0002048756D69646974793A20004661696CDC
:1001E000656420746F20726561642066726F6D2093
:1001F0004448542073656E736F722100D409112432
:100200001FBECFEFD8E0DEBFCDBF22E0AAE5B1E050
:1002100001C01D92A83DB207E1F711E0A0E0B1E0F6
:10022000E0E3F6E202C005900D92AA35B107D9F7D6
:1002300010E0CFEFD0E004C02197FE010E941E1114
:10024000CE3FD107C9F70E94170A0C9416130C94DD
:10025000000008950895AF92BF92CF92DF92EF927F
:10026000FF920F931F93CF93DF936C017B018B0160
:10027000040F151FEB015E01AE18BF08C017D107B0
:1002800059F06991D601ED91FC910190F081E02D3A
:10029000C6010995892B79F7C501DF91CF911F918F
:1002A0000F91FF90EF90DF90CF90BF90AF900895A7
:1002B000FC01538D448D252F30E0842F90E0821B6C
:1002C000930B541710F0CF96089501970895FC01F1
:1002D000918D828D981761F0A28DAE0FBF2FB11D49
:1002E0005D968C91928D9F5F9F73928F90E00895A1
:1002F0008FEF9FEF0895FC01918D828D981731F05B
:10030000828DE80FF11D858D90E008958FEF9FEFAE
:100310000895FC01918D228D892F90E0805C9F4F84
:10032000821B91098F73992708958DE192E00E94B5
:10033000890121E0892B09F420E0822F089580E0D3
:1003400090E0892B29F00E94950181110C94000006
:100350000895FC01A48DA80FB92FB11DA35ABF4F5A
:100360002C91848D90E001968F739927848FA689B4
:10037000B7892C93A089B1898C91837080648C9308
:10038000938D848D981306C00288F389E02D8081B7
:100390008F7D80830895EF92FF920F931F93CF93E9
:1003A000DF93EC0181E0888F9B8D8C8D98131AC0B0
:1003B000E889F989808185FF15C09FB7F894EE8997
:1003C000FF896083E889F9898081837080648083F4
:1003D0009FBF81E090E0DF91CF911F910F91FF903F
:1003E000EF900895F62E0B8D10E00F5F1F4F0F73E7
:1003F0001127E02E8C8D8E110CC00FB607FCFACFA2
:10040000E889F989808185FFF5CFCE010E94A90195
:10041000F1CFEB8DEC0FFD2FF11DE35AFF4FF08272
:100420009FB7F8940B8FEA89FB8980818062CFCFD8
:100430000F931F93CF93DF938C01D0E0C0E0F801BE
:10044000EC0FFD1F6491662341F08DE192E00E9464
:10045000CB01892B11F02196F2CFCE01DF91CF9104
:100460001F910F910895CF93DF93EC01888D88231E
:10047000B9F0AA89BB89E889F9898C9185FD03C007
:10048000808186FD0DC00FB607FCF7CF8C9185FFEC
:10049000F2CF808185FFEDCFCE010E94A901E9CF87
:1004A000DF91CF910895833081F028F4813099F065
:1004B0008230A9F008958730A9F08830C9F08430DF
:1004C000B1F4809180008F7D03C0809180008F7790
:1004D00080938000089584B58F7784BD089584B596
:1004E0008F7DFBCF8091B0008F778093B00008950F
:1004F0008091B0008F7DF9CFCF93DF93282F30E02C
:10050000F901EA58FE4F8491F901E855FE4FD49164
:10051000F901EC56FE4FC491CC23A1F081110E9449
:100520005302EC2FF0E0EE0FFF1FE657FE4FA591B0
:10053000B491EC91ED2381E090E009F480E0DF914B
:10054000CF91089580E090E0FACF1F93CF93DF938F
:10055000282F30E0F901EA58FE4F8491F901E8555F
:10056000FE4FD491F901EC56FE4FC491CC23A9F073
:10057000162F81110E945302EC2FF0E0EE0FFF1FA7
:10058000E459FE4FA591B4918FB7F894EC911111F5
:1005900008C0D095DE23DC938FBFDF91CF911F91F0
:1005A0000895DE2BF8CFCF93DF9390E0FC01E85560
:1005B000FE4F24918C569E4FFC0184918823D1F0EC
:1005C00090E0880F991FFC01EE59FE4FA591B49160
:1005D000FC01E459FE4FC591D49161110EC09FB743
:1005E000F8948C91E22FE0958E238C932881E2235E
:1005F000E8839FBFDF91CF9108958FB7F894EC9176
:10060000E22BEC938FBFF6CF3FB7F8948091BF01F8
:100610009091C001A091C101B091C20126B5A89BE3
:1006200005C02F3F19F00196A11DB11D3FBFBA2F84
:10063000A92F982F8827BC01CD01620F711D811D44
:10064000911D42E0660F771F881F991F4A95D1F7C9
:1006500008958F929F92AF92BF92CF92DF92EF92C6
:10066000FF924B015C010E9404036B017C010E941C
:1006700004036C197D098E099F09683E734081054A
:100680009105A8F321E0821A9108A108B10888EE2B
:10069000C80E83E0D81EE11CF11C81149104A10452
:1006A000B10429F7FF90EF90DF90CF90BF90AF900B
:1006B0009F908F90089520919B01260F3327331F21
:1006C00021323105ECF42091F301FC0190E080E04F
:1006D000243069F082E00895A0919B012191AC0142
:1006E00045585E4FA40FB52FB11D2C930196861768
:1006F00098F380919B01680F60939B0180E00895BF
:1007000081E008951092F30181E08093F20110924C
:10071000CD0161E082E10E94A50261E083E10E94D7
:10072000A502E9EBF0E080818E7F808380818D7F60
:10073000808388E48093B80085E48093BC000895AA
:10074000CF93DF9391E090937A018823B9F0C09121
:10075000B800D091BA008091BC008A7B8093BC0025
:1007600060E082E10E94A50260E083E10E94A502B0
:100770000E948203D093BA00C093B800DF91CF915A
:100780000895CF92DF92EF92FF920F931F93CF9332
:10079000DF93D0911C0281E0D13208F09CC0C0915F
:1007A0001B020E9404036B017C018091F301811103
:1007B0006CC082E08093F30181E08093F2018FEFBF
:1007C0008093F1011092F001D093EF01ABEFB1E013
:1007D000EFECF1E080E0D8138DC01092CE01809153
:1007E000CE01CC0FC82BC093CE018091CD018130BA
:1007F00009F084C01092CD010E9404036B017C01BA
:100800008091CE018093BB008091F5019091F6011B
:10081000A091F701B091F801892B8A2B8B2BA1F0C5
:100820000E9404030091F5011091F6012091F70157
:100830003091F8016C197D098E099F090617170779
:100840002807390708F442C08091BC0083FDD8CF47
:1008500085EC8093BC000E9404036B017C018091B5
:10086000F301823009F44CC08091F1018F3F09F40B
:1008700069C08091F101803209F466C08091F10174
:10088000803309F463C084E026C08091F501909123
:10089000F601A091F701B091F801892B8A2B8B2BDF
:1008A00009F483CF0E9404030091F5011091F60131
:1008B0002091F7013091F8016C197D098E099F098B
:1008C000061717072807390708F06FCF8091F40142
:1008D0000E94A00385E01092FA0110921C0210926F
:1008E000F901DF91CF911F910F91FF90EF90DF9071
:1008F000CF9008959D9191938F5F6DCF85EEA9CF95
:100900008091F5019091F601A091F701B091F80165
:10091000892B8A2B8B2B09F4A2CF0E940403009110
:10092000F5011091F6012091F7013091F8016C1951
:100930007D098E099F09061717072807390708F050
:100940008ECFC4CF80E0C7CF82E0C5CF83E0C3CFD6
:100950000895E091C8018091C701E81730F4F0E0F4
:10096000E65AFE4F808190E008958FEF9FEF089543
:100970009091C8018091C7012FEF3FEF981748F47D
:10098000E92FF0E0E65AFE4F208130E09F5F909320
:10099000C801C90108958091C7019091C801891BC0
:1009A000990B0895CF92DF92EF92FF920F931F93CE
:1009B000CF93DF937C01CB018A012091F90122239F
:1009C00089F0EB016B01C40ED51ECC15DD0569F075
:1009D0006991D701ED91FC910190F081E02DC70163
:1009E0000995F3CF642F0E945B03C801DF91CF917B
:1009F0001F910F91FF90EF90DF90CF900895CF93CC
:100A0000DF931F92CDB7DEB769832091F9012223CE
:100A1000F9F020911C02203258F021E030E0FC0176
:100A20003383228390E080E00F90DF91CF9108958F
:100A30008091FA01E82FF0E0E550FE4F9981908314
:100A40008F5F8093FA0180931C0281E090E0ECCFED
:100A500061E0CE0101960E945B03F7CF90E080E059
:100A60000895EF92FF921F93CF93DF932FB7F894DF
:100A70008091C9019091CA01A091CB01B091CC01A4
:100A80002FBF4091CF025091D0026091D10270915E
:100A9000D20284179507A607B70740F41092CF0239
:100AA0001092D0021092D1021092D2022091D30261
:100AB000211118C04091CF025091D0026091D10213
:100AC0007091D202841B950BA60BB70B803D97400B
:100AD000A105B10538F481E0DF91CF911F91FF901E
:100AE000EF9008951092D3022FB7F8948091C90126
:100AF0009091CA01A091CB01B091CC012FBF8093FE
:100B0000CF029093D002A093D102B093D202109260
:100B1000CA021092C9021092C8021092C702109223
:100B2000C60261E08091CC020E94A5026AEF70E0EB
:100B300080E090E00E94290361E08091CC020E9455
:100B4000D30260E08091CC020E94A50264E170E0D3
:100B500080E090E00E942903F89461E08091CC024B
:100B60000E94A5028BE990E00197F1F760E0809187
:100B7000CC020E94D30210E081E0C0E0D0E0E82E79
:100B8000F12C8091CC020E947C028E159F0519F4F5
:100B9000DF5FDF3FB1F78091CC020E947C02DF3F34
:100BA000C1F0C43098F0C0FD11C0E12FE695E69584
:100BB000E695F0E0EA53FD4F9081990F90832091E4
:100BC000CE022D1710F4916090831F5FCF5FC53563
:100BD000A9F678941832B8F04091CA022091C60262
:100BE0008091C702280F3327331F8091C802280F36
:100BF000311D8091C902820F932F911D99274817AB
:100C0000190609F468CF80E067CFCF92DF92EF92A8
:100C1000FF92CF93DF93C82F0E943105882341F0C4
:100C20008091CD028B3049F018F08551823038F137
:100C300060E070E080EC9FE71BC06091C80270E04C
:100C400090E080E00E94870ECC2391F020E030E01D
:100C500040E151E40E94E80E20E030E040EA50E438
:100C60000E944A1020E030E040E052E40E94DE0F93
:100C7000DF91CF91FF90EF90DF90CF900895D091CA
:100C8000C8026D2F6F7770E090E080E00E94890EBF
:100C900020E030E040E853E40E94E80E6B017C0164
:100CA0006091C90270E090E080E00E94890EA70187
:100CB00096010E94DE0F20E030E040E251E40E9405
:100CC0004A10D7FFC1CF9058BFCFFB010190002041
:100CD000E9F73197AF01461B570BDC01ED91FC9111
:100CE0000280F381E02D09948F929F92AF92BF9280
:100CF0000F931F93CF93DF93CDB7DEB7A1970FB6B6
:100D0000F894DEBF0FBECDBF19A2423008F44AE00E
:100D10008E010F5D1F4F842E912CB12CA12CA501AB
:100D200094010E94FC10E62FB901CA01EA3004F5D3
:100D3000E05DD801EE938D01232B242B252B79F731
:100D400090E080E0109729F0BD018DE192E00E94D3
:100D50006506A1960FB6F894DEBF0FBECDBFDF913A
:100D6000CF911F910F91BF90AF909F908F9008955A
:100D7000E95CDFCF4F925F926F927F928F929F924A
:100D8000AF92BF92CF92DF92EF92FF920F931F9399
:100D9000CF936B017C01742EAC019B010E94F71074
:100DA0006AE271E0811126C046015701E894B7F864
:100DB0002FEF3FEF4FE75FE7C501B4010E94F71047
:100DC00081110CC02FEF3FEF4FE75FE7C501B40182
:100DD0000E94820E6EE271E0181664F02FEF3FEF72
:100DE0004FE75FE4C701B6010E94F2101816ACF499
:100DF00062E371E08DE192E0CF911F910F91FF903E
:100E0000EF90DF90CF90BF90AF909F908F907F90AA
:100E10006F905F904F900C9465062FEF3FEF4FE778
:100E20005FECC701B6010E94820E87FDE1CF20E092
:100E300030E0A901C701B6010E94820E10E000E077
:100E400087FF0AC06DE28DE192E00E94CB018C0128
:100E5000F7FAF094F7F8F094C0E060E070E080E01A
:100E60009FE37C1641F020E030E040E251E40E9434
:100E70004A10CF5FF6CFA70196010E94DE0F2B012B
:100E80003C010E94C3104B015C014AE00E947406C1
:100E90007C01E00EF11ECC23C1F1C501B4010E941A
:100EA000870E9B01AC01C301B2010E94DD0F4B0113
:100EB0005C016EE28DE192E00E94CB01E80EF91E2A
:100EC000C15018F120E030E040E251E4C501B40126
:100ED0000E94E80E2B013C010E94C3104B01B12C73
:100EE000A12C4AE0C501B4010E947406E80EF91E67
:100EF000C501B4010E94870E9B01AC01C301B20180
:100F00000E94DD0F4B015C01DBCFC701CF911F9128
:100F10000F91FF90EF90DF90CF90BF90AF909F9098
:100F20008F907F906F905F904F90089585ED8093A4
:100F3000BC008091F5019091F601A091F701B0916C
:100F4000F8010796A11DB11D23E0B695A7959795C9
:100F500087952A95D1F72091BC0024FD03C01092FB
:100F6000F30108954091F5015091F6016091F70168
:100F70007091F801452B462B472B69F30097A1058B
:100F8000B10541F025E32A95F1F700000197A10989
:100F9000B109E1CF8091F4010C94A0031F920F924C
:100FA0000FB60F9211242F933F934F935F936F933C
:100FB0007F938F939F93AF93BF93EF93FF938DE1B5
:100FC00092E00E94A901FF91EF91BF91AF919F9193
:100FD0008F917F916F915F914F913F912F910F90E2
:100FE0000FBE0F901F9018951F920F920FB60F9281
:100FF00011242F938F939F93EF93FF93E0912D02F2
:10100000F0912E028081E0913302F091340282FD52
:101010001BC09081809136028F5F8F7320913702C1
:10102000821741F0E0913602F0E0E35EFD4F958FCC
:1010300080933602FF91EF919F918F912F910F90A6
:101040000FBE0F901F9018958081F4CF1F920F92C2
:101050000FB60F9211242F933F938F939F93AF93CB
:10106000BF938091C9019091CA01A091CB01B09129
:10107000CC013091BE0123E0230F2D3758F50196A6
:10108000A11DB11D2093BE018093C9019093CA0197
:10109000A093CB01B093CC018091BF019091C0018E
:1010A000A091C101B091C2010196A11DB11D809313
:1010B000BF019093C001A093C101B093C201BF9141
:1010C000AF919F918F913F912F910F900FBE0F90F5
:1010D0001F90189526E8230F0296A11DB11DD2CFAF
:1010E0001F920F920FB60F9211242F933F934F939D
:1010F0005F936F937F938F939F93AF93BF93EF9380
:10110000FF938091B900887F803609F44AC0F0F5DA
:10111000883209F4A7C018F5803109F49BC0B8F4EF
:10112000882309F4F9C0883009F494C0FF91EF9145
:10113000BF91AF919F918F917F916F915F914F91EF
:101140003F912F910F900FBE0F901F9018958831EF
:1011500009F488C0803251F78093F10114C08034C3
:1011600009F49DC040F48033B9F38833F9F68093D5
:10117000F10185ECB0C0803509F485C0883509F4EB
:1011800096C0883499F60E949607D0CF883909F422
:101190008CC038F5883729F050F4883611F0803744
:1011A00029F683E08093F3011092BD0157C088387F
:1011B00009F47BC0803919F0803809F0B7CF8091ED
:1011C000BD01803208F071C0E091BD0181E08E0F59
:1011D0008093BD018091BB00F0E0E356FE4F808319
:1011E0003DC0803B39F0E0F4803A09F479C0883A98
:1011F00009F09CCF84E08093F30110929C0110923F
:101200009B01E091C501F091C601099580919B0178
:1012100081110FC081E080939B0110927B0109C076
:10122000803C09F4A6CF883C09F4A3CF883B09F0A1
:101230007DCFE0919C0181E08E0F80939C01F0E0D6
:10124000E558FE4F80818093BB0090919C01809176
:101250009B0129C08091CE018093BB0085EC8093D7
:10126000BC0064CF9091F0018091EF01981758F580
:10127000E091F00181E08E0F8093F001F0E0E15306
:10128000FE4F8081E9CFE091F00181E08E0F8093E5
:10129000F0018091BB00F0E0E153FE4F808390911C
:1012A000F0018091EF019817C8F285E8D8CFE0915E
:1012B000F00181E08E0F8093F0018091BB00F0E09F
:1012C000E153FE4F80838091F20181115CCF81E078
:1012D0008093CD0184EA8093BC001092F30126CF65
:1012E00085EC8093BC001092F3018091BD018032A7
:1012F00030F4E091BD01F0E0E356FE4F10826091C2
:10130000BD0170E0E091C301F091C4018DE991E06D
:1013100009951092BD010ACF1092F10134CFCF92FE
:10132000DF92EF92FF920F931F93E82FF92F05C0E2
:10133000015011092109310961F190819623941717
:10134000B9F305C0015011092109310911F190814A
:1013500096239413F7CFC12CD12CE12CF12C0AC089
:101360008FEFC81AD80AE80AF80A0C151D052E05D1
:101370003F0579F080818623841791F36C2D7D2DB4
:101380008E2D9F2D1F910F91FF90EF90DF90CF90AA
:10139000089560E070E080E090E01F910F91FF9071
:1013A000EF90DF90CF900895EDE1F2E0138212828A
:1013B00088EE93E0A0E0B0E084839583A683B783B2
:1013C0002AE031E03183208325EC30E03587248723
:1013D00024EC30E03787268720EC30E0318B208BFF
:1013E00021EC30E0338B228B22EC30E0358B248BE8
:1013F00026EC30E0378B268B118E128E138E148ED6
:10140000EAEBF2E01382128284839583A683B7838A
:101410008CE191E091838083E6ECF2E082E08683C8
:101420008BE0878386E0808781E085870895CF936E
:10143000DF93CDB7DEB7A1970FB6F894DEBF0FBE2E
:10144000CDBF789484B5826084BD84B5816084BD4D
:1014500085B5826085BD85B5816085BD80916E0052
:10146000816080936E001092810080918100826083
:1014700080938100809181008160809381008091C0
:1014800080008160809380008091B10084608093AF
:10149000B1008091B00081608093B00080917A00AB
:1014A000846080937A0080917A00826080937A00D1
:1014B00080917A00816080937A0080917A008068C0
:1014C00080937A001092C100E0912D02F0912E02DB
:1014D00082E08083E0912902F0912A021082E0915B
:1014E0002B02F0912C028FEC808310923502E09158
:1014F0003102F091320286E08083E0912F02F09178
:101500003002808180618083E0912F02F09130026F
:10151000808188608083E0912F02F0913002808189
:1015200080688083E0912F02F091300280818F7D6E
:1015300080831092C8011092C7011092FA01109294
:101540001C020E94820389E291E09093C60180937D
:10155000C5018AE291E09093C4018093C30160E0E9
:101560008091CC020E94D30261E08091CC020E9463
:10157000A5021092CF021092D0021092D1021092C6
:10158000D20261E086E00E94D30260E085E00E9422
:10159000D30260E086E00E94A50283E090E001971C
:1015A000F1F761E086E00E94A5028BE490E00197EC
:1015B000F1F760E086E00E94A502EDEAF1E06491B7
:1015C000E9E9F1E08491E82FF0E0EE0FFF1FE65724
:1015D000FE4F8591949100E412E42FE030E0462F15
:1015E0000E948F09611571058105910529F06F5FD2
:1015F0007F4F8F4F9F4F9F70072E000C880B990BCA
:101600000E94890E26E933E44BE05DE30E94E80E78
:1016100020E030E040E05FE30E94E80E0E94BC1052
:101620002B0164EF71E080E090E00E94290366E303
:1016300071E08DE192E00E9465066201550CEE08B2
:10164000FF084AE0C701B601F7FE0DC06DE28DE16B
:1016500092E00E94CB0166277727CB016C197D09A8
:101660008E099F094AE00E94740662E571E08DE1EF
:1016700092E00E94650666E571E08DE192E00E94CD
:10168000650681E08093F901F8E0F0931B02109267
:10169000FA0110921C02642D8AEB92E00E94FF0472
:1016A0000E94C10364EF71E080E090E00E94290392
:1016B0000E943105882349F08091CD028B3061F082
:1016C00020F08551823008F449C0C12CD12C80EC27
:1016D000E82E8FE7F82E09C06091C60270E090E016
:1016E00080E00E94870E6B017C0180E00E9405066D
:1016F0002B013C0181E00E9405064B015C01A70122
:101700009601C701B6010E94F710811110C0A30114
:101710009201C301B2010E94F710811108C0A50116
:101720009401C501B4010E94F7108823C1F18CED2A
:1017300091E00E94180266E571E08DE192E00E945E
:10174000650680E090E0892B09F423CF0E94950183
:10175000882309F41ECF0E9400001BCF6091C602AF
:1017600070E090E080E00E94870E20E030E040E8EA
:1017700053E40E94E80E6B017C016091C70270E0A7
:1017800090E080E00E94890EA70196010E94DE0F82
:1017900020E030E040E251E40E944A10A4CF8E01E4
:1017A0000F5F1F4F2AE04CE0C701B6010E942D0CCD
:1017B0001C0110E000E0009799F0FC01019000206E
:1017C000E9F7BF01681B790B90E080E00E944912A5
:1017D0008C01009729F0FC011082B1010E940F13C7
:1017E00081E08093F901F9E0F0931B021092FA0175
:1017F00010921C020115110529F0B8018AEB92E044
:101800000E9465060E94C10380ED91E00E941802CB
:1018100042E0C701B6010E94BA068FEB91E00E9438
:10182000180242E0C301B2010E94BA068CEB91E0BB
:101830000E94180242E0C501B4010E94BA0664EF9A
:1018400071E080E090E00E9429030115110509F480
:1018500078CFC8010E94C01174CFEF920F931F93ED
:10186000CF93DF93E80134E047FD34E1042E000C10
:10187000550B57FF03C0519541955109E32E022F97
:10188000242FAE010E944B0CCE01DF91CF911F910E
:101890000F91EF900895A9E0B0E0E1E5FCE00C9431
:1018A000AC0F6A01F22EB02E102FFBE3AF2EA01664
:1018B00008F41BE31F5F012F27E0AE014F5F5F4F6E
:1018C0000E94AA0DBC018981982F9970913009F46A
:1018D0003FC09BE2E1FC04C09E2D9170E0FC3AC049
:1018E0005E2D5071E82FE87083FF46C084E09111AF
:1018F00001C083E0EF2DE81B8F1508F0E0E0D60172
:101900008E2F20E2552351F1992329F0D6019C9383
:10191000C60101966C0196012D5F3F4FE2FE24C087
:101920008EE4D6018C9391E411969C9311971296B4
:101930008C93D9018E2F90E281111BC0E20FF32FFF
:10194000F11D10828EEF9FEF2996ECE00C94C80FEA
:101950009DE2C6CF90E2C4CF2D9381508111FCCF80
:10196000CE0ED11CE0E0D0CF8EE6D6018C9391E66E
:10197000DBCF9D938150E0CF482F447082FF3DC064
:1019800084E0911101C083E08F1510F4EF2DE81B66
:10199000D6018E2F20E2552309F1992329F0D60193
:1019A0009C93C60101966C0196012D5F3F4FE2FEAC
:1019B0001BC089E4D6018C938EE411968C93119709
:1019C00086E412968C93D9018E2F90E2882309F435
:1019D000B5CF9D938150FACF2D9381508111FCCFCB
:1019E000CE0ED11CE0E0D9CF89E6D6018C938EE6ED
:1019F00011968C93119786E6E4CF9B0177FF02C086
:101A000030E020E0A1E0B0E0911102C0B0E0A0E041
:101A1000F9013196AE0FBF1F8B2C912CBB2009F41E
:101A200061C05401EFEFAE1ABE0AAA0DBB1DFA1633
:101A30001B0619F014F04F2D4A1B511188C0E3FC0E
:101A400059C07601A42FB0E2A1114FC0C40ED11C21
:101A5000992309F45BC040E0D6011196F60190830A
:101A60006D01552309F448C0012F060F9A81582FA4
:101A7000507184FF03C0913309F4015010160CF02B
:101A800047C0093008F008E0EEE2FE2E5B01A01A24
:101A9000B10885019194819491082F3F320729F470
:101AA000D601FC92F60131966F016217730794F12B
:101AB000021713077CF5DB01A21BB30BAA24A39426
:101AC000B12CAC0EBD1EAA0DBB1D11968C912150E0
:101AD0003109D601119628153905F4F0F6018083F5
:101AE0006D01DBCFB12CA12CA0CFF701B1937F0109
:101AF000A150AACF9111B0CFD601942F50E302C0CC
:101B00005D9391509111FCCFC40ED11C40E0ACCF3D
:101B100001E0BACF80E3DBCF6217730731F496336D
:101B200088F4953311F4552369F0F6018083FD01A3
:101B3000842F90E2811108C0A40FB11D1C9290E087
:101B400080E002CF81E3F1CF91938150F3CF9111E7
:101B500083CF8ACF283008F027E03327DA01990FA6
:101B6000311D87FD916000966105710539F4326081
:101B70002E5F3D9330E32A95E1F708959F3F30F0C3
:101B800080387105610509F03C5F3C5F3D93913001
:101B900008F08068911DDF93CF931F930F93FF92FE
:101BA000EF92192F987F9695E92F96959695E90FC4
:101BB000FF27EE53FF4F99273327EE24FF24A70179
:101BC000E70105900894079428F4360FE71EF81EE5
:101BD000491F511D660F771F881F991F0694A1F793
:101BE0000590079428F4E70EF81E491F561FC11DE3
:101BF000770F881F991F661F0694A1F70590079419
:101C000028F4F80E491F561FC71FD11D880F991FB2
:101C1000661F771F0694A1F70590079420F4490FDB
:101C2000561FC71FD81F990F661F771F881F06945E
:101C3000A9F784911095177041F0D695C7955795DF
:101C40004795F794E7941A95C1F7E8E6F0E06894B1
:101C50001590159135916591959105907FE2739559
:101C6000E118F10A430B560BC90BD009C0F7E10C80
:101C7000F11E431F561FC91FD01D7EF4703311F48F
:101C80008A95E6CFE894015030F0080F0AF4002757
:101C9000021708F4202F2395022F7A3328F079E3D6
:101CA0007D932A95E9F710C07D932A9589F60694CD
:101CB00097956795379517951794E118F10A430B97
:101CC000560BC90BD00998F023957E9173957A3302
:101CD00008F070E37C932013B8F77E9170617D93D8
:101CE00030F0839571E37D9370E32A95E1F7112439
:101CF000EF90FF900F911F91CF91DF91992787FD72
:101D0000909508950E94C40E08F481E00895E89427
:101D100009C097FB3EF490958095709561957F4F33
:101D20008F4F9F4F9923A9F0F92F96E9BB279395E1
:101D3000F695879577956795B795F111F8CFFAF4F1
:101D4000BB0F11F460FF1BC06F5F7F4F8F4F9F4F22
:101D500016C0882311F096E911C0772321F09EE880
:101D6000872F762F05C0662371F096E8862F70E0E6
:101D700060E02AF09A95660F771F881FDAF7880FC0
:101D80009695879597F90895990F0008550FAA0B16
:101D9000E0E8FEEF16161706E807F907C0F012167E
:101DA0001306E407F50798F0621B730B840B950B81
:101DB00039F40A2661F0232B242B252B21F40895D6
:101DC0000A2609F4A140A6958FEF811D811D089573
:101DD0000E94FB0E0C946C0F0E945E0F38F00E9464
:101DE000650F20F0952311F00C94550F0C945B0FA8
:101DF00011240C94A00F0E947D0F70F3959FC1F3E6
:101E0000950F50E0551F629FF001729FBB27F00DA8
:101E1000B11D639FAA27F00DB11DAA1F649F6627FD
:101E2000B00DA11D661F829F2227B00DA11D621F4C
:101E3000739FB00DA11D621F839FA00D611D221F06
:101E4000749F3327A00D611D231F849F600D211DEA
:101E5000822F762F6A2F11249F5750409AF0F1F06D
:101E600088234AF0EE0FFF1FBB1F661F771F881FD6
:101E700091505040A9F79E3F510580F00C94550FAA
:101E80000C94A00F5F3FE4F3983ED4F386957795CA
:101E90006795B795F795E7959F5FC1F7FE2B880F7C
:101EA000911D9695879597F9089597F99F6780E812
:101EB00070E060E008959FEF80EC089500240A949C
:101EC0001616170618060906089500240A94121615
:101ED0001306140605060895092E0394000C11F448
:101EE000882352F0BB0F40F4BF2B11F460FF04C0F5
:101EF0006F5F7F4F8F4F9F4F089557FD9058440F4E
:101F0000551F59F05F3F71F04795880F97FB991F58
:101F100061F09F3F79F08795089512161306140615
:101F2000551FF2CF4695F1DF08C0161617061806A2
:101F3000991FF1CF86957105610508940895E8947D
:101F4000BB2766277727CB0197F908952F923F92F9
:101F50004F925F926F927F928F929F92AF92BF92B9
:101F6000CF92DF92EF92FF920F931F93CF93DF9365
:101F7000CDB7DEB7CA1BDB0B0FB6F894DEBF0FBEC2
:101F8000CDBF09942A88398848885F846E847D840F
:101F90008C849B84AA84B984C884DF80EE80FD8011
:101FA0000C811B81AA81B981CE0FD11D0FB6F89487
:101FB000DEBF0FBECDBFED0108955058BB27AA2745
:101FC0000E94F50F0C946C0F0E945E0F38F00E9477
:101FD000650F20F039F49F3F19F426F40C945B0F41
:101FE0000EF4E095E7FB0C94550FE92F0E947D0F4E
:101FF00058F3BA17620773078407950720F079F43E
:10200000A6F50C949F0F0EF4E0950B2EBA2FA02D81
:102010000B01B90190010C01CA01A0011124FF2795
:10202000591B99F0593F50F4503E68F11A16F04090
:10203000A22F232F342F4427585FF3CF469537958F
:102040002795A795F0405395C9F77EF41F16BA0B54
:10205000620B730B840BBAF09150A1F0FF0FBB1F02
:10206000661F771F881FC2F70EC0BA0F621F731F4B
:10207000841F48F4879577956795B795F7959E3FA8
:1020800008F0B0CF9395880F08F09927EE0F979539
:10209000879508950E945E100C946C0F0E94650F46
:1020A00058F00E945E0F40F029F45F3F29F00C9435
:1020B000550F51110C94A00F0C945B0F0E947D0FD3
:1020C00068F39923B1F3552391F3951B550BBB2767
:1020D000AA2762177307840738F09F5F5F4F220FAC
:1020E000331F441FAA1FA9F335D00E2E3AF0E0E8A3
:1020F00032D091505040E695001CCAF72BD0FE2FED
:1021000029D0660F771F881FBB1F26173707480780
:10211000AB07B0E809F0BB0B802DBF01FF27935838
:102120005F4F3AF09E3F510578F00C94550F0C9498
:10213000A00F5F3FE4F3983ED4F3869577956795BB
:10214000B795F7959F5FC9F7880F911D969587956D
:1021500097F90895E1E0660F771F881FBB1F62178C
:1021600073078407BA0720F0621B730B840BBA0B4A
:10217000EE1F88F7E09508950E94C3106894B1118E
:102180000C94A00F08950E94850F88F09F5798F037
:10219000B92F9927B751B0F0E1F0660F771F881F6C
:1021A000991F1AF0BA95C9F714C0B13091F00E9486
:1021B0009F0FB1E008950C949F0F672F782F882709
:1021C000B85F39F0B93FCCF3869577956795B395AD
:1021D000D9F73EF490958095709561957F4F8F4F1C
:1021E0009F4F08950E94C40E08F48FEF08950E9437
:1021F000C40E880B990B0895A1E21A2EAA1BBB1BD3
:10220000FD010DC0AA1FBB1FEE1FFF1FA217B307C2
:10221000E407F50720F0A21BB30BE40BF50B661FD8
:10222000771F881F991F1A9469F76095709580959C
:1022300090959B01AC01BD01CF010895EE0FFF1FEA
:102240000590F491E02D09940F931F93CF93DF93A2
:102250008230910510F482E090E0E091D602F09196
:10226000D70230E020E0B0E0A0E0309799F42115EB
:10227000310509F44AC0281B390B24303105D8F543
:102280008A819B816115710589F1FB0193838283AA
:10229000FE0111C040815181028113814817590705
:1022A000E0F04817590799F4109761F012960C93D3
:1022B000129713961C933296CF01DF91CF911F9105
:1022C0000F9108950093D6021093D702F4CF2115F1
:1022D000310551F04217530738F0A901DB019A018B
:1022E000BD01DF01F801C1CFEF01F9CF9093D70213
:1022F0008093D602CDCFFE01E20FF31F819391931D
:102300002250310939832883D7CF2091D4023091CC
:10231000D502232B41F42091020130910301309327
:10232000D5022093D40220910001309101012115A2
:10233000310541F42DB73EB740910401509105019C
:10234000241B350BE091D402F091D502E217F3077C
:10235000A0F42E1B3F0B2817390778F0AC014E5F15
:102360005F4F2417350748F04E0F5F1F5093D5027B
:102370004093D402819391939FCFF0E0E0E09CCF13
:10238000CF93DF930097E9F0FC013297138212821A
:10239000A091D602B091D702ED0130E020E0109775
:1023A000A1F420813181820F931F2091D4023091BA
:1023B000D5022817390709F061C0F093D502E093E0
:1023C000D402DF91CF910895EA01CE17DF07E8F537
:1023D0004A815B819E0141155105B1F7E901FB83FB
:1023E000EA8349915991C40FD51FEC17FD0761F499
:1023F000808191810296840F951FE90199838883DA
:10240000828193819B838A83F0E0E0E012968D9134
:102410009C9113970097B9F52D913C911197CD019F
:102420000296820F931F2091D4023091D502281773
:10243000390739F6309751F51092D7021092D6022B
:10244000B093D502A093D402BCCFD383C283408182
:102450005181840F951FC817D90761F44E5F5F4FF4
:1024600088819981480F591F518340838A819B81BC
:10247000938382832115310509F0B0CFF093D70201
:10248000E093D6029ECFFD01DC01C0CF1382128201
:10249000D7CFB0E0A0E0EFE4F2E10C94A80F8C01FC
:1024A000009751F4CB010E9424118C01C801CDB7D3
:1024B000DEB7E0E10C94C40FFC01E60FF71F9C01AE
:1024C00022503109E217F30708F49DC0D901CD91DC
:1024D000DC911197C617D70798F0C530D10530F3B6
:1024E000CE0104978617970708F3C61BD70B2297D0
:1024F000C193D1936D937C93CF010E94C011D6CF2D
:102500005B01AC1ABD0A4C018C0E9D1EA091D60237
:10251000B091D702512C412CF12CE12C109731F5C0
:102520008091D4029091D5028815990509F05CC07C
:102530004616570608F058C080910001909101019D
:10254000009741F48DB79EB7409104015091050169
:10255000841B950BE817F90708F055C0F093D502D6
:10256000E093D402F90171836083A0CF8D919C9197
:10257000119712966C90129713967C901397A8154A
:10258000B90559F56C0142E0C40ED11CCA14DB0434
:1025900020F1AC014A195B09DA011296159780F017
:1025A0006282738251834083D9016D937C93E114DD
:1025B000F10471F0D7011396FC93EE93129776CF46
:1025C00022968C0F9D1FF90191838083F301EFCF39
:1025D000F093D702E093D60269CF4816590608F463
:1025E0002C017D01D3019ACFCB010E9424117C01E3
:1025F000009749F0AE01B8010E940613C8010E947D
:10260000C011870153CF10E000E050CFFB01DC0187
:1026100002C001900D9241505040D8F70895FB013F
:10262000DC0101900D920020E1F70895F894FFCFAE
:102630000000D802800000000000CB012B015801EF
:102640003302890167017B0100000000FF04D2040E
:102650002E05A804CB04B804A9046E616E00696E4F
:1026600066006F76660044697374616E6365206608
:10267000726F6D20746865206F626A656374203DB7
:0A268000200020636D000D0A000029
:00000001FF
